{
  "_format": "hh-sol-artifact-1",
  "contractName": "Transactions",
  "sourceName": "contracts/Transactions.sol",
  "abi": [
    {
      "inputs": [],
      "stateMutability": "nonpayable",
      "type": "constructor"
    },
    {
      "anonymous": false,
      "inputs": [
        {
          "indexed": false,
          "internalType": "address",
          "name": "from",
          "type": "address"
        },
        {
          "indexed": false,
          "internalType": "address",
          "name": "to",
          "type": "address"
        },
        {
          "indexed": false,
          "internalType": "uint256",
          "name": "amount",
          "type": "uint256"
        },
        {
          "indexed": false,
          "internalType": "string",
          "name": "message",
          "type": "string"
        },
        {
          "indexed": false,
          "internalType": "uint256",
          "name": "timestamp",
          "type": "uint256"
        },
        {
          "indexed": false,
          "internalType": "string",
          "name": "keyword",
          "type": "string"
        }
      ],
      "name": "Transfer",
      "type": "event"
    },
    {
      "inputs": [],
      "name": "getAllTransactionCount",
      "outputs": [
        {
          "internalType": "uint256",
          "name": "",
          "type": "uint256"
        }
      ],
      "stateMutability": "view",
      "type": "function"
    },
    {
      "inputs": [],
      "name": "getAllTransactions",
      "outputs": [
        {
          "components": [
            {
              "internalType": "address",
              "name": "sender",
              "type": "address"
            },
            {
              "internalType": "address",
              "name": "reciever",
              "type": "address"
            },
            {
              "internalType": "uint256",
              "name": "amount",
              "type": "uint256"
            },
            {
              "internalType": "string",
              "name": "message",
              "type": "string"
            },
            {
              "internalType": "uint256",
              "name": "timestamp",
              "type": "uint256"
            },
            {
              "internalType": "string",
              "name": "keyword",
              "type": "string"
            }
          ],
          "internalType": "struct Transactions.TransferStruct[]",
          "name": "",
          "type": "tuple[]"
        }
      ],
      "stateMutability": "view",
      "type": "function"
    },
    {
      "inputs": [],
      "name": "manager",
      "outputs": [
        {
          "internalType": "address",
          "name": "",
          "type": "address"
        }
      ],
      "stateMutability": "view",
      "type": "function"
    },
    {
      "inputs": [
        {
          "internalType": "address payable",
          "name": "_reciever",
          "type": "address"
        },
        {
          "internalType": "uint256",
          "name": "_amount",
          "type": "uint256"
        },
        {
          "internalType": "string",
          "name": "_message",
          "type": "string"
        },
        {
          "internalType": "string",
          "name": "_keyword",
          "type": "string"
        }
      ],
      "name": "transferMoney",
      "outputs": [],
      "stateMutability": "nonpayable",
      "type": "function"
    }
  ],
  "bytecode": "0x608060405234801561001057600080fd5b50336000806101000a81548173ffffffffffffffffffffffffffffffffffffffff021916908373ffffffffffffffffffffffffffffffffffffffff160217905550610ca2806100606000396000f3fe608060405234801561001057600080fd5b506004361061004c5760003560e01c80631562ecf81461005157806327506f531461006d578063481c6a751461008b5780635e4e2520146100a9575b600080fd5b61006b60048036038101906100669190610635565b6100c7565b005b61007561028f565b6040516100829190610928565b60405180910390f35b6100936104d2565b6040516100a0919061089e565b60405180910390f35b6100b16104f6565b6040516100be919061094a565b60405180910390f35b60018060008282546100d99190610a21565b9250508190555060006040518060c001604052803373ffffffffffffffffffffffffffffffffffffffff1681526020018673ffffffffffffffffffffffffffffffffffffffff168152602001858152602001848152602001428152602001838152509050600281908060018154018082558091505060019003906000526020600020906006020160009091909190915060008201518160000160006101000a81548173ffffffffffffffffffffffffffffffffffffffff021916908373ffffffffffffffffffffffffffffffffffffffff16021790555060208201518160010160006101000a81548173ffffffffffffffffffffffffffffffffffffffff021916908373ffffffffffffffffffffffffffffffffffffffff16021790555060408201518160020155606082015181600301908051906020019061021d929190610500565b506080820151816004015560a0820151816005019080519060200190610244929190610500565b5050507f416cfa4330a4565f45c2fd2dd4826a83a37443aba2ce6f79477c7355afac35fa338686864287604051610280969594939291906108b9565b60405180910390a15050505050565b60606002805480602002602001604051908101604052809291908181526020016000905b828210156104c957838290600052602060002090600602016040518060c00160405290816000820160009054906101000a900473ffffffffffffffffffffffffffffffffffffffff1673ffffffffffffffffffffffffffffffffffffffff1673ffffffffffffffffffffffffffffffffffffffff1681526020016001820160009054906101000a900473ffffffffffffffffffffffffffffffffffffffff1673ffffffffffffffffffffffffffffffffffffffff1673ffffffffffffffffffffffffffffffffffffffff1681526020016002820154815260200160038201805461039c90610b3d565b80601f01602080910402602001604051908101604052809291908181526020018280546103c890610b3d565b80156104155780601f106103ea57610100808354040283529160200191610415565b820191906000526020600020905b8154815290600101906020018083116103f857829003601f168201915b505050505081526020016004820154815260200160058201805461043890610b3d565b80601f016020809104026020016040519081016040528092919081815260200182805461046490610b3d565b80156104b15780601f10610486576101008083540402835291602001916104b1565b820191906000526020600020905b81548152906001019060200180831161049457829003601f168201915b505050505081525050815260200190600101906102b3565b50505050905090565b60008054906101000a900473ffffffffffffffffffffffffffffffffffffffff1681565b6000600154905090565b82805461050c90610b3d565b90600052602060002090601f01602090048101928261052e5760008555610575565b82601f1061054757805160ff1916838001178555610575565b82800160010185558215610575579182015b82811115610574578251825591602001919060010190610559565b5b5090506105829190610586565b5090565b5b8082111561059f576000816000905550600101610587565b5090565b60006105b66105b18461098a565b610965565b9050828152602081018484840111156105ce57600080fd5b6105d9848285610afb565b509392505050565b6000813590506105f081610c3e565b92915050565b600082601f83011261060757600080fd5b81356106178482602086016105a3565b91505092915050565b60008135905061062f81610c55565b92915050565b6000806000806080858703121561064b57600080fd5b6000610659878288016105e1565b945050602061066a87828801610620565b935050604085013567ffffffffffffffff81111561068757600080fd5b610693878288016105f6565b925050606085013567ffffffffffffffff8111156106b057600080fd5b6106bc878288016105f6565b91505092959194509250565b60006106d483836107f0565b905092915050565b6106e581610ac5565b82525050565b6106f481610a77565b82525050565b61070381610a77565b82525050565b6000610714826109cb565b61071e81856109ee565b935083602082028501610730856109bb565b8060005b8581101561076c578484038952815161074d85826106c8565b9450610758836109e1565b925060208a01995050600181019050610734565b50829750879550505050505092915050565b6000610789826109d6565b61079381856109ff565b93506107a3818560208601610b0a565b6107ac81610c2d565b840191505092915050565b60006107c2826109d6565b6107cc8185610a10565b93506107dc818560208601610b0a565b6107e581610c2d565b840191505092915050565b600060c08301600083015161080860008601826106eb565b50602083015161081b60208601826106eb565b50604083015161082e6040860182610880565b5060608301518482036060860152610846828261077e565b915050608083015161085b6080860182610880565b5060a083015184820360a0860152610873828261077e565b9150508091505092915050565b61088981610abb565b82525050565b61089881610abb565b82525050565b60006020820190506108b360008301846106fa565b92915050565b600060c0820190506108ce60008301896106fa565b6108db60208301886106dc565b6108e8604083018761088f565b81810360608301526108fa81866107b7565b9050610909608083018561088f565b81810360a083015261091b81846107b7565b9050979650505050505050565b600060208201905081810360008301526109428184610709565b905092915050565b600060208201905061095f600083018461088f565b92915050565b600061096f610980565b905061097b8282610b6f565b919050565b6000604051905090565b600067ffffffffffffffff8211156109a5576109a4610bfe565b5b6109ae82610c2d565b9050602081019050919050565b6000819050602082019050919050565b600081519050919050565b600081519050919050565b6000602082019050919050565b600082825260208201905092915050565b600082825260208201905092915050565b600082825260208201905092915050565b6000610a2c82610abb565b9150610a3783610abb565b9250827fffffffffffffffffffffffffffffffffffffffffffffffffffffffffffffffff03821115610a6c57610a6b610ba0565b5b828201905092915050565b6000610a8282610a9b565b9050919050565b6000610a9482610a9b565b9050919050565b600073ffffffffffffffffffffffffffffffffffffffff82169050919050565b6000819050919050565b6000610ad082610ad7565b9050919050565b6000610ae282610ae9565b9050919050565b6000610af482610a9b565b9050919050565b82818337600083830152505050565b60005b83811015610b28578082015181840152602081019050610b0d565b83811115610b37576000848401525b50505050565b60006002820490506001821680610b5557607f821691505b60208210811415610b6957610b68610bcf565b5b50919050565b610b7882610c2d565b810181811067ffffffffffffffff82111715610b9757610b96610bfe565b5b80604052505050565b7f4e487b7100000000000000000000000000000000000000000000000000000000600052601160045260246000fd5b7f4e487b7100000000000000000000000000000000000000000000000000000000600052602260045260246000fd5b7f4e487b7100000000000000000000000000000000000000000000000000000000600052604160045260246000fd5b6000601f19601f8301169050919050565b610c4781610a89565b8114610c5257600080fd5b50565b610c5e81610abb565b8114610c6957600080fd5b5056fea264697066735822122049dbddf54ef93b4f2404821ec49616c2e06d47fe8da4804f869b268124fba34b64736f6c63430008040033",
  "linkReferences": {},
  "deployedLinkReferences": {}
}